:020000040800F2
:1000000010080020AD010008172F0008032A00087F
:10001000152F00083D1300081D33000800000000E4
:100020000000000000000000000000005130000847
:100030003F13000800000000192F0008D13000080D
:10004000C7010008C7010008C7010008C701000870
:10005000C7010008C7010008C7010008C701000860
:10006000C7010008C7010008C7010008C701000850
:10007000C7010008C7010008C7010008C701000840
:10008000C7010008C7010008C7010008C701000830
:10009000C7010008C7010008C70100084113000894
:1000A000C7010008C7010008C7010008C701000810
:1000B00035310008C7010008C7010008C701000862
:1000C000C7010008C7010008C7010008C7010008F0
:1000D000C7010008C7010008C7010008C7010008E0
:1000E000C7010008C7010008C701000800F002F8B6
:1000F00000F04DF80AA090E8000C82448344AAF175
:100100000107DA4501D100F042F8AFF2090EBAE872
:100110000F0013F0010F18BFFB1A43F0010318473B
:1001200088360000A8360000103A24BF78C878C18D
:10013000FAD8520724BF30C830C144BF04680C60ED
:10014000704700000023002400250026103A28BF35
:1001500078C1FBD8520728BF30C148BF0B60704739
:10016000662903F09282692900F08880642900F0F2
:100170008580002070471FB500F0B8FB0400002008
:10018000002103F0F5F9E0601FBD10B510BD00F0CF
:10019000A7FC1146FFF7EFFF03F0E6F800F0C5FCFF
:1001A00003B4FFF7F2FF03BC00F006FD09488047E7
:1001B00009480047FEE7FEE7FEE7FEE7FEE7FEE749
:1001C000FEE7FEE7FEE7FEE704480549054A064B61
:1001D0007047000033310008ED00000810020020D5
:1001E0001008002010040020100400200FB41CB5DB
:1001F000074B06AA7B4469460090059800F05DFB1A
:100200000020694600F06CFB1CBC5DF814FB00008C
:10021000E90600002DE9F0410E4604460020206268
:100220002046E168884730B3252805D0D4E901216C
:100230009047206A401CF2E7E16820460027884783
:10024000050018D0A5F14100192802D820354FF437
:1002500000673246294620462760FFF781FF40B1FC
:10026000012804D0F61D26F007060836D8E7361D0B
:10027000D6E72846DAE7206ABDE8F0812DE9F041AB
:100280000646002410687529314615A510D0AFF335
:100290000080002802DA404212A507E031688A0790
:1002A00001D511A502E0490704D510A5012401E0FC
:1002B000AFF3008000210A2306F1240707E0B0FB1A
:1002C000F3F203FB1200303078541046491C00282A
:1002D000F5D123462A463046BDE8F04100F083B808
:1002E000000000002D0000002B0000002000000096
:1002F00010B5431C02E010F8011B71B18107FAD15F
:100300004FF0013202C88C1A8C4314EAC211F9D0A2
:10031000C01A0A0603D0C01E10BDC01A10BD0A04C0
:1003200001D0801E10BD0902FCD0401E10BD10B5CA
:10033000203AC0F00B80B1E81850203AA0E81850DD
:10034000B1E81850A0E81850BFF4F5AF5FEA027C9E
:1003500024BFB1E81850A0E8185044BF18C918C00D
:10036000BDE810405FEA827C24BF51F8043B40F8AE
:10037000043B08BF7047D20728BF31F8023B48BF93
:1003800011F8012B28BF20F8023B48BF00F8012BD1
:1003900070474FF0000200B5134694469646203948
:1003A00022BFA0E80C50A0E80C50B1F12001BFF42E
:1003B000F7AF090728BFA0E80C5048BF0CC05DF894
:1003C00004EB890028BF40F8042B08BF704748BFE2
:1003D00020F8022B11F0804F18BF00F8012B704756
:1003E0007047704770472DE9F0470D469946924691
:1003F000044600F124080168880604D5E06921F06C
:100400001001216000E00120A84201DD471B00E04F
:100410000027A1697A1902EB0900081AA061207867
:10042000C00602D42046AFF30080002608E0D4E9DD
:1004300001211AF806009047206A401C761C2062B1
:100440004E45F4DB2078C0060AD52046AFF3008085
:1004500006E0D4E9012130209047206A401C206248
:10046000381EA7F10107F4DC07E0D4E9012118F8F0
:1004700005009047206A401C2062281EA5F1010556
:10048000F3DC2046AFF300802078000602D502207E
:10049000BDE8F0870120FBE770472DE9FF4F0C46D0
:1004A0001E464FF0FF378BB0D2E90001DDF86080C7
:1004B0000A908A46C1F30A5505B93D46002108460F
:1004C0004FF00000BAF1000F00F4400005DA00EB35
:1004D00080004FF4400101EA50004FEA9059B9F111
:1004E000010F00DDB9460A9850EA4A000ED044F6E2
:1004F0001050A5F2FF3545432F14B8F1000F1ED060
:100500007542291E1EDDC9F100021CE0B8F1010F81
:100510004FF0000001D0302103E0F24305E0215408
:10052000401CB042FBDB30460022002121540B99D5
:10053000C1F80880C1E900200FB0BDE8F08FBD1BF5
:100540006D1CDEE74A4600DA694206A800F058FA58
:1005500006AB93E8070003AB83E8070050460A990F
:1005600000F031FB8DE80700A0F500501F38009027
:100570000398002D09DD42F21F014A46084403A9F1
:100580000390684600F090FD08E0A0F500504A4650
:100590001F3803A90390684600F09AFD8DE8070014
:1005A0000004000C03D04FF0FF30410800E010467B
:1005B000B8F1000F03D00022009215461EE0751E10
:1005C00005D400F097F9303262556D1EF9D5B34667
:1005D0000122084302D000227F1C04E0207830284A
:1005E00001D100227F1E002A099786D01DE0112D1F
:1005F00007DA00F07FF9303262556D1C50EA0102D3
:10060000F5D1084302D00098C8B10EE00021681E61
:1006100005E0235C625C63542254401E491C814205
:10062000F7DBAB46A81B401E0990002004F80B0026
:100630000B98099AC0F80880C0E9002B7CE71126C6
:100640004FF0000859E72DE9F04F88460446D21DC7
:1006500022F0070191B0D1E90001CDE90A0102F0D1
:100660005EFE02460B98C00F01D02D2007E02068E7
:10067000810701D52B2002E0202101EAC000032AD6
:10068000099001D0072A05DB03464146204600F0C9
:1006900077F909E12078800601D5E06900E00620BD
:1006A000B8F1650F814606D0B8F1660F18D0B8F1E1
:1006B000670F70D131E00020B9F1110F009001DB1C
:1006C000112301E009F101030AAA01A90CA8FFF70F
:1006D000E4FEDDE90C70002609F10105834647E0E0
:1006E00001204B4600904FF000470AAA01A90CA830
:1006F000FFF7D3FEDDE90DB00C995D46002610B979
:1007000009F101000D18B9EB050003D4C0F1FF3663
:1007100009F10105A5EB09002BE0B9F1010F01DAA0
:100720004FF001090020B9F1110F0090484601DD9A
:10073000112300E003460AAA01A90CA8FFF7ADFEA9
:10074000DDE90C704D4600268346207800070AD468
:10075000AB4500DA5D4601A8012D04DD411911F811
:10076000011C302907D04F4502DA17F1040F04DAD3
:10077000012082460FE06D1EEEE7002F02DCED1B2C
:100780003E4403E0781CA84200DD7D1CB81B00F14C
:10079000010A4FF000472078000703D4AA4501DB87
:1007A0004FF0FF3A0021B7F1004F0DF143088DF8EB
:1007B000431022D002202B23002F01DA7F422D2369
:1007C0004FF00A0C011EA0F1010000DC47B197FBBD
:1007D000FCF10CFB11720F46303208F8012DF1E7E5
:1007E000A8F1010003702188090501D5452100E029
:1007F0006521A0F1010800F8011C09980FA9A1EBDF
:100800000807FF1D00B10120411901EBEA70A16941
:100810003844081A401EA0612078C00602D4204641
:10082000AFF30080099828B1D4E901219047206AEC
:10083000401C20622078C00622D52046AFF30080FD
:100840001EE0002E04DBB34502DD01A8805D00E060
:100850003020D4E901219047206A401C2062761C98
:10086000AAF101005FEA000A0AD100F03FF8C0686F
:100870000168405CD4E901219047206A401C206255
:10088000281EA5F10105DCDC07E0D4E9012118F8F8
:10089000010B9047206A401C2062381EA7F1010717
:1008A000F3DC2046AFF30080022011B045E60000E3
:1008B00001694A1C02610878704700B58FB0CDE924
:1008C00001310021059105497944CDE90310114614
:1008D0006846FFF79FFC0FB000BD0000E5FFFFFF7B
:1008E0000A6802F8010B0A60704700000048704770
:1008F000CC01002030B5B0F10A024FEA900E71F140
:1009000000034EEA817EB0EB0E0061EB91014FEAED
:10091000101E4EEA017E10EB0E0041EB11114FEA62
:10092000102E4EEA016E10EB0E0041EB11214FEA42
:10093000104E4EEA014E10EB0E0041EB11414018F3
:1009400041F100014FEAD00040EA41704FEAD10185
:1009500010EB80054FEA810444EA907444EB0104F3
:100960006D1944EB0404521BA3414FF0000348BF30
:100970000A3200D530BD401C41F1000130BD0000FD
:100980002DE9F0411F46044603260168072A01F4B9
:10099000006004DB08B116A505E016A503E008B168
:1009A00015A500E015A521F010002060A069C01E6B
:1009B000A0610FB1401EA0612046AFF300804FB18F
:1009C000D4E9012138469047206A401C2062C01CAF
:1009D000206206E0206AFAE7D4E9012115F8010B4C
:1009E0009047761EF8D22046AFF30080BDE8F08134
:1009F0004E414E006E616E00494E4600696E6600C3
:100A00002DE9F047814616468AB0324878440DC831
:100A10008DE80D002F487844801C03AC0DC884E895
:100A20000D0041F69B303722014491FBF2F0A0F11A
:100A3000800502FB10141B3C02D56442012000E03B
:100A40000020DFF890A080460027FA44AAF1BA0AF5
:100A50000DE0E00709D03246684607EB47010AEB94
:100A6000810100F035FB8DE8070064107F1C002C2D
:100A7000EFD1184F7F44A83F18E0E80714D007EBE8
:100A800004100DF1180A90E80E008AE80E00C06804
:100A9000F04201D198190890324606A903A800F047
:100AA00017FB03AB83E807006D10641C002DE4D135
:100AB00032466946B8F1000F03A802D000F0F4FAFC
:100AC00001E000F005FBC9E90001C9F808200AB0FF
:100AD000BDE8F087242D000000487047AC010020DD
:100AE0007546FFF7F9FFAE4605006946534620F00C
:100AF0000700854618B020B5FFF766FBBDE820402B
:100B00004FF000064FF000074FF000084FF0000BC9
:100B100021F00701AC46ACE8C009ACE8C009ACE87C
:100B2000C009ACE8C0098D4670470446AFF30080A9
:100B30002046FFF735FB00004FF0013C50F8042B36
:100B400051F8043B9A4221D1A2EB0C03934313EAE0
:100B5000CC1317D150F8042B51F8043B9A4215D10D
:100B6000A2EB0C03934313EACC130BD150F8042BE4
:100B700051F8043B9A4209D1A2EB0C03934313EAC8
:100B8000CC13DBD04FF00000704700BFD01A01BA81
:100B9000B1FA81F101F0180122FA01F0CB40C1F164
:100BA0002001DBB2C0B2C01A2CFA01F3D11A914372
:100BB00011EAC311E6D1704701491820ABBEFEE728
:100BC0002600020070475FEA400C08BF91F0000F5A
:100BD0004FEA8C234FEAC12243EA51514FEA1C509D
:100BE00018BF00F5F0404FEA300018BF41F0004157
:100BF0005FEA6C5C00F02980BCF1FF3F08BF40F069
:100C000080407047130C06BF12044FF0100C4FF0D9
:100C1000000C130E04BF12020CF1080C130F04BFDA
:100C200012010CF1040C930F04BF92000CF1020CA2
:100C3000D30F04BF52000CF1010C11464FF000021B
:100C4000A0F11F00A0EB0C00704711F0004F08BF8F
:100C5000704731F000413FF4D5AF0B0C06BF0904DB
:100C60004FF0100C4FF0000C0B0E04BF09020CF1FA
:100C7000080C0B0F04BF09010CF1040C8B0F04BF0F
:100C800089000CF1020CCB0F04BF49000CF1010CE0
:100C9000CCF12003A0EB0C0022FA03F302FA0CF2D1
:100CA00041EA030100F10100704720F07F4C80EA27
:100CB000030023F07F47ACEB070303F57C5300F000
:100CC000004003F1FF032DE980494FEA154B09B4B9
:100CD0004FEA144325EA0B4E24EA03480FF2042698
:100CE00006EB132749083E785FEA320203FB0667EA
:100CF000C7F5000707FB06F64FEA54374FEAD6461A
:100D000006F1020607FB066CCCF1005C4FEA1C47BB
:100D10002CEA074C07FB06F40CFB06F504EB154622
:100D20004FEA961634BF00204FF000404FEAD1370B
:100D300006FB07FC4FEA1C4C0CFB0BF7D21B03FB1A
:100D40000CF761EB07010CFB0EF7B0EB074072EB01
:100D500017420CFB08F734BFA2EB0742B2EB074285
:100D600061EB17414FEA0C444FEA910706FB07FC81
:100D70004FEA1C4C0CFB0BF7B0EBC74072EB573241
:100D800003FB0CF734BFA2EBC742B2EBC74261EBE7
:100D900057310CFB0EF7B0EBC70072EB57720CFB30
:100DA00008F734BFA2EBC702B2EBC70261EB577181
:100DB000039F4FEA816141EA921104EBCC044FEAB0
:100DC000D1374FEA826206FB07FC42EA90124FEAF3
:100DD00080604FEA1C4C0CFB0BF7D21B03FB0CF79B
:100DE00061EB07010CFB0EF7B0EB074072EB17420B
:100DF0000CFB08F734BFA2EB0742B2EB074261EBF2
:100E000017414FEA8C554FEA910704EB9C2406FBEF
:100E100007FC4FEA1C4C0CFB0BF7B0EBC74072EB26
:100E2000573203FB0CF734BFA2EBC742B2EBC74209
:100E300061EB57310CFB0EF7B0EBC70072EB57724A
:100E40000CFB08F734BFA2EBC702B2EBC70261EBA1
:100E5000577115EB4C254FEA816141EA92114FEA37
:100E600082624FEAD13742EA901206FB07FC44F156
:100E700000044FEA80604FEA1C4C0CFB0BF7D21BBE
:100E800003FB0CF761EB07010CFB0EF7B0EB07401F
:100E900072EB17420CFB08F734BFA2EB0742B2EB30
:100EA000074261EB174115EB1C154FEA813141EA0E
:100EB00092414FEA823242EA90424FEA80304FEA52
:100EC0000C7644F1000448EA03434EEA0B484FF025
:100ED000000EB2EB080C71EB030724BF62463946E3
:100EE0004EEB0E0E4FF0000B0018524149414BEBF8
:100EF0000B0BB2EB080C71EB03077BF1000B24BF6B
:100F0000624639464EEB0E0E4FF0000B0018524170
:100F100049414BEB0B0BB2EB080C71EB03077BF178
:100F2000000B24BF624639464EEB0E0E51EA020713
:100F300018BF46F0010616EB0E7655F1000254F18B
:100F4000000103D5BDE88901BDE80088BDE889013D
:100F5000B619BDE80048524141EB0101A3F101037C
:100F6000704780807F7E7D7C7B7A79787776767516
:100F70007473727171706F6E6E6D6C6C6B6A6A698E
:100F80006868676666656464636362616160605F28
:100F90005F5E5E5D5D5C5C5B5B5A5A5959585857A1
:100FA0005756565555555454535352525251515009
:100FB00050504F4F4F4E4E4D4D4D4C4C4C4B4B4B5C
:100FC0004A4A4A49494948484847474747464646A2
:100FD00045454544444444434343434242424241DD
:100FE0004141002B26D4770021D01CB54FEA3707AA
:100FF00003B44FF010004FF010014FF000000FBC91
:101000000BF1010BBDE81040BBF1010F08BF5FEA17
:10101000170722BF12F1010211F101014FF0004147
:1010200043F1000300F0004043EA00007047F9D3A9
:101030005708DAE746EA064613F1400F4FEA16462C
:101040001FDD13F1200FDFBF16430A4600212033B6
:101050005B42C8D0C3F1200746EA064602FA07F70A
:101060004FEA164646EA0706C3F1200722FA03F2C2
:1010700001FA07F721FA03F14FF0000342EA0702F1
:10108000B1E746EA020646EA06464FEA164646EA4F
:101090000106BCBF46EA0646360C4FF000034FF08F
:1010A00000024FF000019EE72DE9C048934630B49E
:1010B00091E8380007C831EA400C48BF34EA430CD5
:1010C00003D5FFF7F2FDFFF78CFFF0BCBDE8008809
:1010D0002DE9C048934630B491E8380007C810F0B5
:1010E000804F08BF13F0804F03D100F005F8FFF7E1
:1010F00078FFF0BCBDE8008820F07F4780EA03005D
:1011000023F07F4C07EB0C03A3F57C5300F0004069
:10111000A3F1FE0392F0000F00F0B38095F0000FF2
:1011200000F077802DE901494FEA11404FEA14465B
:1011300021EA004800FB06FC24EA064708FB06F605
:1011400007FB08F800FB07F718EB06484CEB164CBA
:101150004FEA124B18EB07484FEA15464CEB174085
:1011600022EA0B4E0BFB06FC25EA06470EFB06F6B1
:1011700007FB0EFE0BFB07F71EEB064E4CEB164C67
:101180004FF000061EEB074E4CEB174B18EB0B080D
:1011900040F1000018EB0E0B58EB000840F1000086
:1011A0008F1A4FF000013CBFC943661B14BFB5EB5B
:1011B000040C00213CBFC943F61B4FEA17444EEA1A
:1011C0008E0E27EA04454FEA1C4704FB07622CEA0F
:1011D000074C05FB07F70CFB05F604FB0CFC16EBB4
:1011E000074642EB174216EB0C4642EB1C421BEB48
:1011F000060658EB0202414146EA9E0601D5BDE8CB
:101200000189B619524141EB0101A3F10103BDE887
:1012100001894FEA14454FEA114724EA054621EABD
:10122000074C05FB07F406FB07F70CFB06F105FB73
:101230000CFC11EB074144EB17444FEA124711EB4A
:101240000C4144EB1C4422EA074C05FB07F206FB69
:1012500007F70CFB06F605FB0CFC16EB074642EB0A
:10126000174216EB0C4642EB1C456A1854F100017C
:1012700048BF7047B619524141EB0101A3F1010388
:10128000704795F0000F37D04FEA11424FEA1447EC
:1012900021EA024624EA074C02FB07F106FB07F7A6
:1012A0000CFB06F402FB0CFC14EB074441EB17416A
:1012B0004FEA154714EB0C4441EB1C4125EA074C5F
:1012C00002FB07F506FB07F70CFB06F602FB0CFC1E
:1012D00016EB074645EB174516EB0C4645EB1C4253
:1012E000121951F1000148BF7047B619524141EB44
:1012F0000101A3F1010370474FEA14454FEA11477A
:1013000024EA054621EA074C05FB07F106FB07F72F
:101310000CFB06F24FF0000605FB0CFC12EB07423B
:1013200041EB174112EB0C4251EB1C4148BF704797
:10133000921841EB0101A3F101037047FEE77047EA
:101340004FF4007000F06AB910B50446FEF7D0FF04
:101350000021C0B20A4602E06254491CC9B281426F
:10136000FAD310BD0FB4482100B593B06846FFF71B
:1013700010F80BA16846FEF739FF6846FEF7B8FF84
:1013800082B26423694614A801F0EEFA6846FFF7BA
:10139000DBFF4FF4FA6000F015F913B05DF814FBB1
:1013A00041542B43495053544152543D22544350CD
:1013B000222C2264767475616E6461746E2E3030F6
:1013C00030776562686F73746170702E636F6D2221
:1013D0002C38300D0A0000000FB4642110B59AB00B
:1013E0006846FEF7D6FF33A16846FEF7FFFE684663
:1013F000FEF77EFF82B2642369461CA801F0B4FAAE
:101400006846FFF7A1FF4FF4FA64204600F0DAF8CF
:101410002AA16846FEF7EAFE6846FEF769FF82B237
:10142000642369461CA801F09FFA6846FFF78CFF09
:10143000204600F0C7F823A16846FEF7D7FE6846AD
:10144000FEF756FF82B2642369461CA801F08CFAAD
:101450006846FFF779FF204600F0B4F81DA1684602
:10146000FEF7C4FE6846FEF743FF82B26423694676
:101470001CA801F079FA6846FFF766FF204600F0E5
:10148000A1F818A16846FEF7B1FE6846FEF730FFE6
:1014900082B2642369461CA801F066FA6846FFF729
:1014A00053FF41F2883000F08DF81AB010BC5DF89F
:1014B00014FB000041540D0A000000004154453067
:1014C0000D0A000041542B43574D4F44453D310D0B
:1014D0000A00000041542B4349504D55583D300DF2
:1014E0000A00000041542B43574A41503D22547595
:1014F000616E222C223031323334353637220D0AD8
:10150000000000000FB470B5AEB00DF5887C14215A
:101510009CE8700029A8FEF73CFF982103A8FEF77D
:1015200038FF284602F040F88DE8430022461C4967
:1015300003A8FEF75BFE03A8FEF7DAFEC2B219A10C
:1015400029A8FEF753FE29A8FEF7D2FE82B2642333
:1015500029A932A801F008FA642000F033F803A8A2
:10156000FEF7C6FE82B2642303A932A801F0FCF99B
:101570004FF47A7000F026F829A8FFF7E5FE0DA1D8
:1015800029A8FEF733FE29A8FEF7B2FE82B2642333
:1015900029A932A801F0E8F92EB070BC5DF814FB5F
:1015A0004C37000841542B43495053454E443D2588
:1015B000690D0A0041542B434950434C4F53450D8C
:1015C0000A00000070B5044600F02AF90546601CC8
:1015D00002D004480078044400F022F9401BA042E5
:1015E000FAD370BD0800002010B5B0F5007F10D10F
:1015F00008498022A1F12C0001F0E1FA05480178A8
:10160000032906D1044B40789870024801F0A2FFEC
:10161000586010BD2C01002000000020044910B5C6
:101620000A68024202D00860FFF7DEFF10BD00002A
:10163000140401402DE9F84FDFF8B8910024A9F116
:10164000040B23460F2709F1040AABF1040EC9E08D
:101650000125A5402A40AA427DD1674ED1F804C099
:10166000ACEB0608B44532D014DCBCF1030F3AD021
:1016700009DCBCF1000F2AD0BCF1010F1CD0BCF179
:10168000020F31D11DE0BCF1110F17D0BCF1120FC8
:101690002AD119E0B8F5881F19D006DCB8F5803FCB
:1016A00015D0B8F5801F1FD111E0B8F5001F0ED07E
:1016B000B8F5041F18D10AE0CB6815E0CB681B1DF4
:1016C00012E0CB6808330FE0CB680C330CE08B687A
:1016D0002BB1012B4FF0080303D0456104E0042334
:1016E00002E0056100E00023FF2A01D8064601E080
:1016F00000F104064FEA840501D9A5F12005D6F8CA
:10170000008007FA05FC28EA0C0803FA05F548EA08
:101710000508C6F800804D68ED0062D5374DAE690A
:1017200046F00106AE61AD6924F0030605F001053F
:101730000095334D06EB050CDCF80850A607360F74
:1017400007FA06F825EA0805DFF8B880404503D116
:101750004FF0000817E044E0DFF8AC80404502D1CC
:101760004FF001080FE0DFF8A480404502D14FF0B0
:10177000020808E0DFF89880404502D14FF00308E6
:1017800001E04FF0040808FA06F848EA0508CCF82A
:1017900008804D68D9F80060ED024D4601D516432A
:1017A00000E096432E604D68DAF80060AD025546C1
:1017B00001D5164300E096432E604D68DBF80060CB
:1017C000AD035D4601D5164300E096432E604D689B
:1017D000DEF80060ED03754601D5164300E0964340
:1017E0002E60641C0D682A46E5407FF431AFBDE8E9
:1017F000F88F0000080401400000111000100240A2
:101800000000014000080140000C014000100140B0
:10181000001401400AB1016170470904FBE70000B0
:101820000148806870470000080000200248816875
:10183000027811448160704708000020074810B505
:10184000016841F010010160032000F075F80F20DD
:1018500000F006F800F024F8002010BD002002403F
:1018600070B50D4D04464FF47A712878B1FBF0F055
:101870000A490968B1FBF0F000F0CBFD48B9102C23
:1018800007D200222146501E00F036F800206C607E
:1018900070BD012070BD0000080000201400002071
:1018A0000C4808B5816941F001018161816901F04D
:1018B00001010091C16941F08051C161C06900F02E
:1018C000805000900448416821F0E06141F00071CF
:1018D000416008BD0010024000000140002809DB03
:1018E00000F01F02012191404009800000F1E0203A
:1018F000C0F8001170470000F0B40E4B1B680C4696
:10190000C3F30223C3F10705042D00D90425191DD3
:10191000072901D2002300E0DB1E012606FA05F1AB
:10192000491E214099409E40761E16403143F0BC2E
:1019300001F009BD0CED00E0064900F0070208685F
:101940004FF6FF03184040EA0220034A10430860A4
:10195000704700000CED00E00000FA052DE9F047AB
:101960000F46050061D0434E306800F00700B842D2
:1019700009D2306820F0070038433060306800F04A
:101980000700B84251D128683B4C810712D5400767
:1019900003D5606840F4E06060602878000703D5F4
:1019A000606840F4605060606068A96820F0F000F2
:1019B000084360602878C00728D06868012810D0E4
:1019C0002168022810D0890700292EDA616821F0E9
:1019D000030101436160FFF723FF804641F288392C
:1019E0000DE021688903EFE78901EDE7FFF718FFB4
:1019F000A0EB0801494502D90320BDE8F0876068E3
:101A0000696800F00C00B0EB810FEFD1306800F096
:101A10000700B8420BD9306820F007003843306027
:101A2000306800F00700B84201D00120E5E72878CF
:101A3000400705D56068E96820F4E060084360600D
:101A40002878000706D56068296920F4605040EACC
:101A5000C100606000F038F86168084AC1F3031102
:101A6000515CC8400649086006480068FFF7F8FE68
:101A70000020C2E70020024000100240A03600080B
:101A8000140000200C000020044805490068496843
:101A9000044AC1F30221515CC84070471400002081
:101AA00000100240B0360008044805490068496843
:101AB000044AC1F3C221515CC840704714000020A1
:101AC00000100240B03600080E4A51680E4801F07E
:101AD0000C03042B11D0082B0FD10C48C1F3834306
:101AE000C903C05C0AD55168084AC1F34041921E3F
:101AF000515C054A5043B0FBF1F07047044948433C
:101B0000704700000010024000127A009036000872
:101B100000093D002DE9F84F040070D02078C04D39
:101B2000C00749D06868C0F38100012807D0686801
:101B3000C0F38100022809D16868C00306D528686F
:101B4000800339D560680028E7D035E06068B0F5DB
:101B5000803F0BD010B1B0F5A02F11D0286820F431
:101B600080302860286820F4802002E0286840F453
:101B700080302860606890B1FFF752FE06460AE0A8
:101B8000286840F480202860F0E700BFFFF748FE97
:101B9000801B642873D828688003F7D50CE0FFF712
:101BA0003FFE064605E000BFFFF73AFE801B6428B3
:101BB000F0D828688003F7D420789A4E80074FF039
:101BC00001094FF0000839D5686810F00C0F07D0F4
:101BD0006868C0F38100022809D16868C00306D490
:101BE0002868800714D52069012808D110E02069F1
:101BF000B0B1C6F80090FFF713FE074605E00AE112
:101C0000FFF70EFEC01B0228C4D828688007F7D54E
:101C10002868616920F0F80040EAC10028600DE002
:101C2000C6F80080FFF7FCFD074604E0FFF7F8FD6B
:101C3000C01B022823D828688007F7D42078000723
:101C40002CD57948A169D9B1C0F80090FFF7E8FD1B
:101C5000074604E0FFF7E4FDC01B02280FD8686ABE
:101C60008007F7D571484FF4FA510068B0FBF1F0E6
:101C7000009000BF0098411E0091FAD20EE080E073
:101C8000C0F80080FFF7CCFD074604E0FFF7C8FD71
:101C9000C01B022875D8686A8007F7D420784007EF
:101CA00060D5E8690027C00008D4E86940F080509A
:101CB000E861E869012700F0805000905C48016805
:101CC000C90513D40168834641F480710160FFF7B0
:101CD000A7FD824606E000BFFFF7A2FDA0EB0A00C9
:101CE00064284ED8DBF80000C005F5D5E06801286F
:101CF0000AD008B1052813D0286A20F00100286214
:101D0000286A20F0040002E0286A40F001002862FE
:101D1000E06841F2883B98B1FFF782FD82460BE014
:101D2000286A40F004002862EEE700BFFFF778FD64
:101D3000A0EB0A0159455AD8286A8007F6D50CE06D
:101D4000FFF76EFD824605E0FFF76AFDA0EB0A0192
:101D500059454CD8286A8007F6D41FB1E86920F0AD
:101D60008050E861E06988B36968C1F381010229A4
:101D700044D00228C6F8608004D0FFF751FD044625
:101D800038E034E0FFF74CFD074604E0FFF748FD7C
:101D9000C01B02282BD828688001F7D4206AB0F530
:101DA000803F05D16868A16820F40030084368606E
:101DB000D4E908010843696821F474110843686094
:101DC000C6F86090FFF72CFD044606E025E000BF52
:101DD000FFF726FD001B022809D828688001F7D5E7
:101DE0001BE000BFFFF71CFD001B022802D90320E7
:101DF000BDE8F88F28688001F4D40EE00128F7D000
:101E00006868226A00F48031914204D1616A00F46A
:101E10007010884201D00120EAE70020E8E70000C6
:101E200000100240000042428004424214000020A0
:101E30000070004090F85100704770B5040009D060
:101E4000606A002540B125616561A56294F8510082
:101E500040B10CE0012070BD6068B0F5827FF4D025
:101E6000E561F2E784F85050204600F03FF8022088
:101E700084F851002068016821F040010160A088C9
:101E8000218900F4827001F404410843A18901F41E
:101E900000610843217C01F002010843217D01F02B
:101EA00001010843218B01F400710843217F01F0F7
:101EB0003801084394F8201001F080010843218D77
:101EC00001F40051084321680860A069042101EA77
:101ED0001040216848602068C16921F40061C16137
:101EE0006565012084F85100002070BD30B585B0D3
:101EF00000240094019402940394006815498842D8
:101F000025D11548C16941F48041C161C16901F41D
:101F100080410491816941F00801816180690F4D20
:101F200000F0080004904FF420400090022001903F
:101F30000320039069462846FFF77CFB4FF480405E
:101F4000CDE90004694628460294FFF773FB05B00B
:101F500030BD00000038004000100240000C01407D
:101F60002DE9F84F044690F85100984616460F4662
:101F70000025012801D0022598E060684FF0040B8D
:101F8000B0F5827F01D1A068F8B194F85000012823
:101F900026D04FF0010984F85090FFF741FC8246AB
:101FA000002F7FD0002E7DD084F851B000206065D6
:101FB000A763A687E6872063A086E0862064606426
:101FC000A068B0F5004F0DD016E084F851B013466C
:101FD0000A462046CDF8008000F024F9BDE8F88FCD
:101FE0000220FBE72068016821F0400101602068C1
:101FF000016821F48041016020680168490603D42A
:10200000016841F040010160E068D8B13BE0206820
:102010008168C90709D0007BA16B0870A06B401CC8
:10202000A063E08F401EE0870CE0FFF7F9FBA0EB18
:102030000A01414503D3B8F1FF3F03D006E0B8F1F0
:10204000000F03D0E08F0028E1D11FE003252BE033
:1020500020688168C90709D0C068A16B0880A06B9F
:10206000801CA063E08F401EE0870CE0FFF7D8FBE8
:10207000A0EB0A01414503D3B8F1FF3F03D0E5E7E8
:10208000B8F1000FE2D0E08F0028E1D1524641467E
:10209000204600F042FF08B120206065606D00E03E
:1020A00000E008B1012501E084F85190002084F897
:1020B0005000284692E72DE9F84F044690F850006A
:1020C0000026984615468A4601280CD0012784F838
:1020D0005070FFF7A5FB814694F85100B3460128E4
:1020E00004D002269AE00220BDE8F88FBAF1000F72
:1020F0006FD0002D6DD0032084F85100C4F854B087
:10210000C4F830A0A586E586C4F838B0A4F83CB081
:10211000A4F83EB0C4F844B0C4F840B0A068B0F52C
:10212000004F09D12068016821F04001016020685A
:10213000016841F48041016020680168490603D4C8
:10214000016841F040010160E068B0F5006F60682F
:1021500003D058B3012D29D049E008B1012D1FD17A
:10216000206B21680088C86006E0206881688907C4
:1021700009D5216B0988C160206B801C2063E08E2B
:10218000401EE0860CE0FFF74BFBA0EB0901414548
:1021900003D3B8F1FF3F03D006E0B8F1000F03D03E
:1021A000E08E0028E1D125E0032635E0206B216890
:1021B0000078087306E02068816889070AD5216BDA
:1021C00009780173206B401C2063E08E401EE0867E
:1021D0000DE01FE0FFF724FBA0EB0901414503D30D
:1021E000B8F1FF3F03D0DFE7B8F1000FDCD0E08E9D
:1021F0000028E0D14A464146204600F0BCFE08B126
:1022000020206065A06818B92068C16880680090C7
:10221000606D08B1012601E084F8517084F850B077
:10222000304661E72DE9FF4F81B0044690F8500039
:1022300000260E9F1D4693464FF0010901280FD03E
:102240004FF0010A84F850A0FFF7EAFA804694F8AC
:102250005100616801280DD0B1F5827F08D103E0FB
:10226000022005B0BDE8F08FA16809B9042801D0AB
:102270000226C9E00298002865D0BBF1000FFBD010
:10228000002DF9D094F85100042802D0052084F8DC
:10229000510000206065C4F838B0E587A587029931
:1022A0002163E586A586206460642068016849068C
:1022B00003D4016841F040010160E068B0F5006FAF
:1022C000606803D0F0B3012D47D081E008B1012D43
:1022D0003CD1206B21680088C860206B801C206383
:1022E000E08E401EE08631E02068816889070FD5C6
:1022F000E18E69B1B9F1010F0AD1216B0988C16082
:10230000206B801C2063E08E401EE0864FF00009A9
:1023100020688168C9070CD0E18F51B1C068A16BFA
:102320000880A06B801CA063E08F401EE0874FF008
:102330000109FFF775FAA0EB0800B84206D3781C34
:1023400004D001E009E05BE003265BE0E08E0028BA
:10235000CAD1E08F0028C7D140E0206B2168007807
:102360000873206B401C2063E08E401EE0862FE047
:102370002068816889070FD5E18E69B1B9F1010F35
:102380000AD1216B09780173206B401C2063E08E19
:10239000401EE0864FF0000920688168C9070CD014
:1023A000E18F51B1C068A16B0870A06B401CA063A5
:1023B000E08F401EE0874FF00109FFF731FAA0EBF4
:1023C0000800B84202D3781C02D0BAE7002FB8D078
:1023D000E08E0028CCD1E08F0028C9D14246394692
:1023E000204600F0C8FD18B10126202060650BE0F2
:1023F000A06818B92068C16880680090606D08B155
:10240000012601E084F851A0002084F850003046F5
:1024100027E710B5401EB0F1807F01D3012010BD29
:102420004FF0E02460610F21601700F08CFF002066
:10243000A06107202061002010BD70477047000098
:1024400070B590F83C20012A26D0012480F83C4049
:10245000022280F83D2003685A689D6822F07006C9
:102460000A6832435A600D4B02689A4208D0B2F1B2
:10247000804F05D00A4B9A4202D00A4B9A4204D1AF
:10248000496825F080031943916080F83D400021A0
:1024900080F83C10084670BD022070BD002C014041
:1024A000000400400008004010B5040003D094F878
:1024B0003D0010B107E0012010BD002084F83C0071
:1024C000204600F01FF8022084F83D00211D2068FE
:1024D00000F036FE012084F8460084F83E0084F8BF
:1024E0003F0084F8400084F8410084F8420084F8FA
:1024F000430084F8440084F8450084F83D0000203F
:1025000010BD000008B50068B0F1804F12D10A4834
:10251000C16941F00101C161C069002200F0010000
:10252000009002211C20FFF7E7F9BDE808401C20BD
:10253000FFF7D4B908BD00000010024070B5044692
:1025400090F83C000025012817D0012684F83C6053
:10255000022084F83D002068826822F0770222F48D
:102560007F4282600868502838D00DDC20284FD088
:1025700005DC90B3102811D14AE0022070BD30284C
:1025800046D040280AD13BE060282FD070280DD0DB
:10259000B0F5805F03D0B0F5005F12D0012584F85C
:1025A0003D60002084F83C00284670BDCB68D1E92E
:1025B0000121206800F0FAFD2068816841F0770170
:1025C00009E0CB68D1E90121206800F0EFFD206827
:1025D000816841F480418160E1E719E0CA68496897
:1025E000206800F0F5FD5021206806E0CA684968BF
:1025F000206800F0FEFD6021206800F0E1FDCEE7DC
:10260000CA684968206800F0E3FD40212068F4E7CB
:10261000226801461046F0E7704770B5044600682E
:1026200001694FF00005C943890715D4C168C94342
:10263000890711D4E91E0161012020772068806993
:102640008007204602D0FFF7E7FF04E000F098F88B
:10265000204600F096F8257720680169C9434907AC
:1026600017D4C168C943490713D46FF0040101614D
:10267000022020772068806910F4407F204602D035
:10268000FFF7CAFF04E000F07BF8204600F079F87D
:10269000257720680169C943090716D4C168C94371
:1026A000090712D46FF00801016104202077206827
:1026B000C0698007204602D0FFF7AEFF04E000F0BB
:1026C0005FF8204600F05DF8257720680169C9436E
:1026D000C90617D4C168C943C90613D46FF01001E5
:1026E0000161082020772068C06910F4407F2046EF
:1026F00002D0FFF791FF04E000F042F8204600F01E
:1027000040F8257720680169C943C90708D1C16825
:10271000C943C90704D1891E0161204600F032F87F
:1027200020680169C943090609D4C168C94309067B
:1027300005D46FF0800101612046FFF77EFE20681E
:102740000169C943490609D4C168C943490605D48A
:102750006FF040010161204600F092F820680169A5
:10276000C94389060BD4C168C943890607D46FF0F1
:10277000200101612046BDE87040FFF75FBE70BDDB
:102780007047704770B53B490068A4B0096888423B
:102790006ED139494878401CC0B248700A2867D1C8
:1027A0003449262248310EA8FDF7C1FD314C48348A
:1027B000E08CADF85E00A4F1200555F8480F1890A4
:1027C000A888ADF86400E08DADF86600206B1A9023
:1027D000606B1B9004F1380109220E461CA82834B6
:1027E000FDF7A5FD607E8DF87900A07E8DF87A005A
:1027F000E0691F90382212A96846FDF798FD0DF197
:10280000380C9CE80F00FEF7ADFD2622A4F128014C
:1028100011A8FDF78CFD34F8020CADF86A002868A9
:102820001B90A888ADF87000E088ADF87200A06831
:102830001D90E0681E90092231461FA8FDF777FD24
:10284000607E8DF88500A07E8DF88600E06922907C
:102850000EAB012209490D2083E80700382215A993
:102860006846FDF764FD11AC94E80F00FEF74AFEE0
:1028700024B070BD7000002000000020CDCC0A42C2
:10288000704770B5040004D094F84100002510B1E1
:1028900006E0012070BD84F84050204600F024F886
:1028A000242084F841002068C16821F40051C160EF
:1028B000204600F0B1FC2068016921F490410161DB
:1028C0002068416921F02A0141612068C16841F412
:1028D0000051C1606564202084F8410084F8420002
:1028E0006563002070BD000030B585B00024009401
:1028F0000194029403940068174988422AD117482A
:10290000816941F480418161816901F480410491D0
:10291000816941F0080181618069114D00F0080072
:10292000049040200090022001900320039069460B
:102930002846FEF77FFE8020CDE900046946284640
:102940000294FEF777FE0748416841F0E06141F0EC
:102950000401416005B030BD003801400010024064
:10296000000C0140000001402DE9F843044690F8B6
:1029700041001F4616460D46202802D00220BDE821
:10298000F8837DB176B100206064212084F8410095
:10299000FEF746FFA6848046E684A068B0F5805F17
:1029A00002D003E00120EAE7206910B12E4600259D
:1029B0000EE000260CE08021204600F073FCA0B958
:1029C000AEB116F8010B21684860E08C401EE0842F
:1029D000E08C43464FF0000200970028EBD14FF007
:1029E0004001204600F05EFC30B10320C7E735F817
:1029F000020BC0F30800E6E7202084F84100002025
:102A0000BDE7FEE770B50C460546012100F09CF8D5
:102A1000024644B1012C0BD0032C0FD0052C13D04F
:102A2000062C17D01BE0002002F0F802E86116E047
:102A3000012002F0F802521CE86110E0032002F0CD
:102A4000F802D21CE8610AE0052002F0F802521DEB
:102A5000E86104E0062002F0F802921DE8612846D1
:102A6000BDE87040012100F061B970B50446002155
:102A7000FFF7C8FF0A20FEF7A5FD0121204600F060
:102A800063F805460A20FEF79DFD45F0800201210E
:102A9000204600F04BF96420FEF794FD2046216AA1
:102AA00000F0CBF894F82A10204600F005F994F8CD
:102AB0002B10204600F0E1F823220C21204600F0E4
:102AC00035F9204600F01FF994F82410204600F054
:102AD000FDF8FF221F21204600F028F994F8250078
:102AE00094F82610000100EB4100C2B21D212046DF
:102AF00000F01CF9208D2021020A204600F016F972
:102B000094F828202121204600F010F94021204689
:102B100000F01AF840F03F024021204600F006F98C
:102B200001212046FFF76EFF0120E0610A20FEF739
:102B300049FD4221204600F007F8122802D04FF448
:102B4000CA7070BDC82070BD0EB501F07F018DF850
:102B5000081001210A46009101AB02A900F003F818
:102B60009DF804000EBD2DE9F0470E4615460446BB
:102B700081889846DDF8209000680022FEF74AFE22
:102B80004FF4FA673B462A463146A069FFF793FAAD
:102B9000A069FFF74FF90128FAD13B464A46414662
:102BA000A069FFF7DDF9A069FFF744F90128FAD120
:102BB000A1882068BDE8F0470122FEF72BBE2DE971
:102BC000F04100250E46074614462846294601E0F6
:102BD0003154401CA042FBDB01213846FFF712FFB5
:102BE00012213846FFF7B0FF40061FD5FF22122101
:102BF000384600F09BF813213846FFF7A5FF05463D
:102C000010213846FFF7A0FF02460D21384600F09C
:102C10008DF8AC4200D22546002405E0002138465C
:102C2000FFF792FF3055641CAC42F7DB05213846B4
:102C3000FFF7E8FE2846BDE8F08170B50546C804F8
:102C40004411C4F307420621284600F06FF805201E
:102C5000FEF7B8FCC4F307220721284600F066F807
:102C60000520FEF7AFFCE2B20821284600F05EF82E
:102C7000BDE870400520FEF7A5BC10B52D2901D296
:102C80002D2105E0F02901D9F02106E0782904D8AA
:102C900005222D3991FBF2F103E00A221E31B1FB2E
:102CA000F2F1C9B22031CAB20B2100F03FF8BDE801
:102CB00010400A20FEF786BC10B50A46092100F034
:102CC00035F8BDE810400A20FEF77CBC70B50C4614
:102CD00006460C2901DD0C2402E0072C00DA07244B
:102CE0001E21FFF731FF05460A20FEF76BFC64F357
:102CF0001F15EAB21E21304600F018F8BDE87040FA
:102D00000A20FEF75FBC10B504461E21FFF71CFF2A
:102D100040F007021E21204600F008F8BDE81040F0
:102D20000A20FEF74FBC0521FFF76CBE0EB541F03F
:102D300080018DF8081001218DF804200A460091C9
:102D400001AB02A900F001F80EBD2DE9F0470E46D7
:102D50001546044681889846DDF8209000680022D8
:102D6000FEF758FD4FF4FA673B462A463146A06904
:102D7000FFF7A1F9A069FFF75DF80128FAD13B46FA
:102D80004A464146A069FFF796F9A069FFF752F855
:102D90000128FAD1A1882068BDE8F0470122FEF79A
:102DA00039BD00002DE9F04385B000242A48009485
:102DB000019402940394816941F020018161816949
:102DC00001F020010491816941F00801816181696C
:102DD00001F008010491816941F004018161806979
:102DE000DFF8788000F004004FF481550490002251
:102DF00029464046FEF70EFDDFF864904FF48077D9
:102E0000002239464846FEF705FD009502260125B9
:102E10000396CDE9015469464046FEF70BFC009746
:102E20000396CDE9015469464846FEF703FC680263
:102E300000900C48CDE9010469464846FEF7FAFBCC
:102E4000002201211720FEF757FD1720FEF746FD4F
:102E500005B0BDE8F083000000100240000C014006
:102E600000080140000011100F4810B50D49016025
:102E70004FF48271416000218160C1604FF40072A3
:102E80000161C0E905120822C0E90721416281629F
:102E90000A21C162FEF7D1FF002801D072B6FEE719
:102EA00010BD0000003800401800002010B586B0AA
:102EB00000241748009401940294039404944FF062
:102EC00080410594016048F69F41C0E9011440F239
:102ED000CF71C0E903148461FFF7E6FA08B172B656
:102EE000FEE74FF48050009069460948FFF726FB43
:102EF00008B172B6FEE7049404A905480594FFF7EB
:102F00009FFA002801D072B6FEE706B010BD00009F
:102F100070000020FEE7FEE77047F8B50446406801
:102F20004FF48273984217D1A0684FF48065B0F5D2
:102F3000004F01D0A8420FD12068066826F0400655
:102F400006606068984207D1A068A84204D1009248
:102F50000B460022012103E000920B460022802153
:102F6000204600F019F8002804D0606D40F02000E1
:102F700060650320F8BD38B50B4600920446002278
:102F8000802100F009F8002804D0606D40F0200096
:102F90006065032038BD00002DE9F8431E469146C8
:102FA00088460446089DFEF73BFC401B351AFEF799
:102FB00037FC074625480068C0F3CB30684338E04B
:102FC000701C37D0FEF72CFCC01BA84203D215B1F1
:102FD000009860B32CE02068416821F0E001416076
:102FE0006068B0F5827F0BD1A068B0F5004F02D0C9
:102FF000B0F5806F04D12068016821F040010160C4
:10300000A06AB0F5005F09D12068016821F4005181
:1030100001602068016841F400510160012084F8DA
:103020005100002084F850000320BDE8F8830025FB
:10303000401E00902068816838EA010004D0002119
:103040004945BDD10020F0E70121F9E71400002037
:103050007047000010B58CB0684600F05FFA2C2273
:1030600069461748FDF763F915481649012402C05F
:10307000891420F8041B144902C08A15028041609B
:10308000491501810E49E839C1604FF4DC71416195
:1030900007210176042141768476FF218177822100
:1030A000C177092181830648FFF7DFFCC82801D1D9
:1030B000064804700CB00248BDE81040FFF733BE6C
:1030C00000010020000C0140000801400000002029
:1030D000FEF7ACBB30B58FB028216846FDF759F933
:1030E00014210AA8FDF755F901210804CDE90010C3
:1030F0000024029402250491CDE907504FF4E0101A
:1031000009906846FEF706FD08B172B6FEE70F208B
:10311000CDE90A054FF48060CDE90C4002210AA8F0
:103120000E94FEF71BFC002801D072B6FEE70FB02C
:1031300030BD70470148FFF770BA000070000020F2
:10314000F0B50268164B174C174D4FF08047984268
:1031500005D0B84203D0A04201D0A84203D122F04A
:1031600070064A683243984205D0B84203D0A04264
:1031700001D0A84203D122F44074CA6822434C69AA
:1031800022F08002224302608A68C2620A68826278
:10319000984201D10969016301214161F0BD00003C
:1031A000002C0140000400400008004010B5846875
:1031B00042EA032224F47F440A432243826010BD82
:1031C000826822F070020A4342F007018160704772
:1031D00010B5036A046A24F001040462846924F0CF
:1031E000F00444EA021423F00A020A4384610262F2
:1031F00010BD10B5036A046A24F0100404628469E7
:1032000023F0A00324F4704444EA023243EA01119B
:103210008261016210BD000010B5044600680169BA
:10322000E26821F44051114301612169A06808431B
:10323000616908432168CA6841F20C639A430243FA
:10324000CA6020684169A26921F44071114341615B
:1032500013492068884202D1FEF726FC01E0FEF700
:1032600013FC00EBC00101EB0010616864228900CF
:10327000B0FBF1F1B1FBF2F06FF01803434301EB47
:103280008303322101EB0311B1FBF2F101F0F002F3
:1032900002EB001001F00F0108442168886010BDA6
:1032A000003801402DE9F041984617460E46044685
:1032B000069D27E0681C25D02DB1FEF7B1FAA0EBE2
:1032C0000800A8421ED920680C3050E8001F21F4E5
:1032D000D07140E80012002AF5D12068143050E87F
:1032E000001F21F0010140E80012002AF5D1202042
:1032F00084F8410084F84200002084F84000032054
:10330000BDE8F0812068006836EA000004D00020A3
:10331000B842CFD00020F3E70120F9E7FEE74900EB
:1033200050EAC12018BF04204A0D18BF40F0010028
:1033300040F2FF72B2EB515F08BF40F0020001287B
:1033400008BF052070470907090E002804DB00F1BB
:10335000E02080F80014704700F00F0000F1E0203A
:1033600080F8141D70470000A6B0FEF767FAFFF75B
:10337000B1FEFFF717FD664C64480C2120604FF446
:10338000E13060600020A060E060C4E90401A06159
:10339000E0612046FFF775FA08B172B6FEE7FFF765
:1033A00063FDFFF783FDFFF755FE012220215948F9
:1033B000FEF730FA2622564912A8FCF7B8FFE08C37
:1033C000ADF86E00524D203DA86C1C90B5F84C0035
:1033D000ADF87400E08DADF87600206B1E90606B48
:1033E0001F9005F15801092220A82591FCF79FFFA5
:1033F00094F841008DF8890094F842008DF88A0015
:10340000606C2390382216A96846FCF790FF0DF1F6
:10341000480C9CE80F00FDF7DFFF16A80DF18009AE
:103420003D4E0127CB464FF00E088246CDF8900066
:1034300040F6B830FEF7C6F82622354912A8FCF748
:1034400076FFE08CADF86E00A86C1C90B5F84C00CF
:10345000ADF87400E08DADF87600206B1E90606BC7
:103460001F90092248462599FCF761FF94F8410016
:103470008DF8890094F842008DF88A00606C2390E2
:10348000382268462499FCF752FF0DF1480C9CE85D
:103490000F00FDF767FF6420FEF794F826221C4911
:1034A00012A8FCF744FFE08CADF86E00A86C1C90ED
:1034B000B5F84C00ADF87400E08DADF87600206BE7
:1034C0001E90606B1F90092258462599FCF72FFF2C
:1034D00094F841008DF8890094F842008DF88A0034
:1034E000606C2390CDF83880382251466846CDE98B
:1034F0000F67FCF71CFF0DF1480C9CE80F00FEF76E
:1035000001F84FF4FA60FEF75DF891E700380140EA
:10351000B8000020000C01400000A44100B58BB0B1
:1035200040F2B111089107218DF824108DF8251073
:1035300001218DF82610FF218DF82A1064218DF8C5
:103540002B100821ADF828102C226946FCF7EFFE5D
:103550000BB000BD8278002141EA0261C27841EAE5
:1035600002410279407941EA022108437047000094
:1035700010B500290AD00878002807D005487844FB
:10358000FDF7DAFA002801D0002010BD0248784487
:1035900010BD00004A020000420200000808A0F529
:1035A00000114FEA3101704743004FEAD30C4FEA54
:1035B0003C0C43401FBF40070CF1605113F0FE4F1D
:1035C00070471CF0006F03D100200CF000417047E1
:1035D0000CF0004343EA507010B540EACC0000F014
:1035E0000EF800BF000000924FEA0001FFF7D6BFBF
:1035F0004FF000414FF00000A1F5002170470EF19F
:10360000020E2EF0030E5EF8044B244204D44FEA5F
:103610004102B2F17F4F11D84FEA4003B3F17F4F1F
:103620000CD80ED14FEAD07CB2F17F4F0CEB4C0C92
:103630000CF1020C08BF4CEBD17C04E04FF0080CFD
:1036400001E04FEAD17C0CEB4C0324FA03F404F0C4
:103650000704B4F1040C06D20EEB840CBDE8104054
:103660004CF0010C6047DFE80CF0070802024FF055
:103670000040A0F5800010BD0846420018BFD2F1FE
:10368000807288BF00F0004010BDFCF7DCBF010273
:1036900002030405060708090A0B0C0D0E0F101093
:1036A00000000000000000000102030406070809F2
:1036B000000000000102030402400000000000A01E
:1036C0000000000005400000000000C800000000ED
:1036D0000C4000000000409C000000001940000069
:1036E0000020BCBE0000000034400000BFC91B8E9B
:1036F00000000004B5400000504BCFD06607E2CF79
:10370000010000006C4100003E8251AADFEEA734A8
:1037100001000000D9420000DCB5A0E23A301F975A
:10372000FFFFFFFFB4450000FD25A0C8E9A3C14F7E
:10373000FFFFFFFFFF3F00000000008000000000CF
:10374000FF3F0000000000800000000047455420BB
:103750002F696E736572742E7068703F636F646555
:103760003D2564267761746572313D2566266D6F4F
:103770006E74683D256420485454502F312E310D0D
:103780000A486F73743A2064767475616E6461746C
:103790006E2E303030776562686F73746170702E92
:1037A000636F6D0D0A0D0A00E43700080000002069
:1037B0001800000028010008FC370008180000204D
:1037C000F8070000440100081C000000430000004E
:1037D000F8FFFFFF0C0000000E0000000F000000CB
:1037E0002E000000000000000000000001000000AA
:0C37F00010000000000000000024F400A5
:04000005080000ED02
:00000001FF
